:0300000002016595
:0C016500787FE4F6D8FD75810A020006E0
:1000EB00C2A71200FC7F06120098D2A71200FCC216
:0100FB00A75D
:0500FC000000000022DD
:10014200D2A71200FCD2A41200FCD2A51200FCD24B
:04015200A60200FC05
:1000B300E4FFC2A4FEC2A41200FCD2A41200FCEF0F
:0D00C30025E0FFA2A6E43342070EBE08E8C8
:0100D000220D
:05009300120098AF050A
:10009800C2A4E4FEEF3392A5C2A41200FCD2A412BB
:0A00A80000FCEF25E0FF0EBE08EAA1
:0100B200222B
:10010100AC07C2A41200EB7F02120093AF041200ED
:0601110098D2A7C2A4224F
:0200D100AD0779
:1000D300C2A41200F77F031200931200B3D2A71237
:0700E30000FCC2A41200FCA6
:0100EA0022F3
:0F015600AD071200EB7F01120093D2A70200FC4D
:10012D00E4FFC2A71200FC7F051200981200B3D2A3
:04013D00A71200FC09
:01014100229B
:10011700EF1FAA0670011E4A600B7D7CEDD3940089
:0501270040EE1D80F711
:01012C0022B0
:10006A008F09C2A0D2A1E50975F00A8485F0807FC4
:10007A00017E00120117C2A1D2A0E50975F00A8417
:09008A00F5807F017E00020117E0
:07017100D2A8D288D2AF2210
:030003000201787F
:03017800050A3243
:10000600E4F508F50A120171120142E4FF120156E5
:100016007F0A7E0012011712012D8F087F0312003E
:10002600D18F08E508B4FF11E4F5087D03AF081287
:1000360001017F0A7E0012011785080AE508650A94
:10004600601BE50AD394634003750A01850A087D9F
:1000560003AF081201017F0A7E00120117AF0812D2
:04006600006A80D8D4
:00000001FF
